:020000040800F2
:10000000980700204D02000865120008F707000855
:100010006112000807030008611B000800000000CF
:10002000000000000000000000000000CD190008E2
:100030008D0500080000000067120008F11A000892
:1000400067020008670200086702000867020008EC
:1000500067020008670200086702000867020008DC
:100060006702000867020008670200080D03000825
:100070001D0300082D0300083D0300084D03000880
:100080005D0300086D0300086702000867020008AE
:10009000670200086702000867020008670200089C
:1000A000670200086702000867020008670200088C
:1000B000670200086702000867020008670200087C
:1000C000670200086702000867020008670200086C
:1000D000670200086702000867020008670200085C
:1000E000670200086702000867020008670200084C
:1000F0006702000867020008670200087D03000825
:10010000670200086702000867020008670200082B
:10011000670200086702000867020008670200081B
:100120008D0300089D030008AD030008BD0300080F
:10013000CD03000867020008670200086702000894
:1001400067020008670200086702000867020008EB
:10015000DD030008ED030008FD0300086702000846
:1001600067020008670200086702000867020008CB
:1001700067020008670200086702000867020008BB
:1001800067020008670200086702000867020008AB
:10019000670200086702000867020008670200089B
:1001A00067020008670200086702000800F002F812
:1001B00000F03CF80AA090E8000C82448344AAF1C5
:1001C0000107DA4501D100F031F8AFF2090EBAE8C3
:1001D0000F0013F0010F18BFFB1A43F0010318477B
:1001E000B0420000D0420000103A24BF78C878C165
:1001F000FAD8520724BF30C830C144BF04680C602D
:10020000704700000023002400250026103A28BF74
:1002100078C1FBD8520728BF30C148BF0B60704778
:100220001FB501F01BFD1FBD10B510BD00F031F86A
:100230001146FFF7F5FF01F095FC00F04FF803B40D
:10024000FFF7F2FF03BC00F057F8000009488047B1
:1002500009480047FEE7FEE7FEE7FEE7FEE7FEE7A8
:10026000FEE7FEE7FEE7FEE704480549054A064BC0
:1002700070470000F91A0008AD010008980100203D
:1002800098070020980300209803002070477047CB
:100290007047754600F02CF8AE4605006946534697
:1002A00020F00700854618B020B5FFF7DDFFBDE858
:1002B00020404FF000064FF000074FF000084FF0CD
:1002C000000B21F00701AC46ACE8C009ACE8C0095E
:1002D000ACE8C009ACE8C0098D46704710B50446CB
:1002E000AFF300802046BDE81040FFF7A8BF000034
:1002F000004870473801002001491820ABBEFEE7D6
:1003000026000200704700BFFEE7000010B502485B
:1003100000F0CFF810BD00001060024010B5024898
:1003200000F0C7F810BD00002860024010B5024878
:1003300000F0BFF810BD00004060024010B5024858
:1003400000F0B7F810BD00005860024010B5024838
:1003500000F0AFF810BD00007060024010B5024818
:1003600000F0A7F810BD00008860024010B50248F8
:1003700000F09FF810BD0000A060024010B50248D8
:1003800000F097F810BD0000B860024010B50248B8
:1003900000F08FF810BD00001064024010B5024854
:1003A00000F087F810BD00002864024010B5024834
:1003B00000F07FF810BD00004064024010B5024814
:1003C00000F077F810BD00005864024010B50248F4
:1003D00000F06FF810BD00007064024010B50248D4
:1003E00000F067F810BD00008864024010B50248B4
:1003F00000F05FF810BD0000A064024010B5024894
:1004000000F057F810BD0000B864024030B5024655
:100410000B460E4CA24207D20D490D4C0834141B5A
:100420001825B4FBF5F006E008490839074C141B01
:100430001825B4FBF5F0042801D3091D001F03F0B3
:100440003D04044D2D5CAC400C6030BD1064024096
:1004500008600240661C00087047704770B502468D
:100460000C460021002300200E4DAA4207D20E4B5D
:100470000D4D1035551B1826B5FBF6F106E0094B5E
:10048000103B084D551B1826B5FBF6F1042901D386
:100490001B1D091F1868054D6D5CE84000F03D000C
:1004A00070BD00001064024000600240661C00083D
:1004B000704770B504463D212046FFF7CFFF85B257
:1004C0003D212046FFF7A2FF05F0200030B1206853
:1004D00000F0100010B1204600F056F805F01000B2
:1004E00030B1206800F0080010B12046FFF7E0FFAF
:1004F00005F0080030B1206800F0040010B120467B
:1005000000F043F805F0040030B1206800F002006C
:1005100010B12046FFF7A0FF05F0010030B160697F
:1005200000F0800010B12046FFF797FF70BD00007B
:1005300010B500220268134B1A40CC680B682343A5
:100540004C6923438C692343CC6923430C6A2343BE
:100550004C6A23438C6A23434C6B23438C6B2343A9
:100560001A430260426922F00702D1E90B342343A7
:100570001A4342610B6943604B6883608B68C360B8
:1005800010BD00003F801CF07047704770470000AE
:10059000044840680449086004480068401C034956
:1005A00008607047001000E02C00002024000020AC
:1005B0007FB5684600F058FE27490098B0FBF1F07F
:1005C000264908602648006820F0807024490860A9
:1005D0000846006840F0807008602248006820F0FB
:1005E0000100204908600846006840F001000860EA
:1005F000002048600846446800BF00BF1A480068F1
:100600004FF47A72B0FBF2F1481EB0F1807F00D354
:100610001CE0481E4FF0E022506150170F220028C6
:1006200008DA13071E0E0E4BE43B00F00F052D1FDA
:100630005E5503E013071D0E0C4B1D5400BF002038
:100640004FF0E02290610720106100BF054840682C
:10065000001B04B070BD000040420F0028000020C5
:10066000FCED00E0001000E00000002000E400E0ED
:1006700001464FF40030081AC0F38F207047000085
:1006800000B502461046FFF7F3FF012101FA00F022
:100690000249096808430149086000BD303802403A
:1006A0002DE9F04304460E461546DDE9078920464C
:1006B000FFF7DEFFC7B2002243E001209040304048
:1006C00000B93CE0214830F817000121914008436F
:1006D0001E4921F81700E0684FEA420C032101FA95
:1006E0000CF18843510008FA01F10843E0602068EA
:1006F0004FEA420C032101FA0CF18843510005FA3C
:1007000001F108432060012D01D0022D16D161684E
:100710000120904080B221EA000003FA02F189B280
:1007200008436060A0684FEA420C032101FA0CF113
:100730008843510009FA01F10843A06000BF501C32
:10074000C2B2102AB9DBBDE8F0830000E40000204B
:100750002DE9FC4705460E4617469846DDE90A9AFC
:100760000EB9BDE8FC872846FFF78AFF00241AE08F
:100770000120A040304000B914E0E10805F120005C
:1007800050F821006107CA0E0F219140884361078C
:10079000C90E0AFA01F10843E20805F1200141F807
:1007A000220000BF641C102CE2D33B4602223146DB
:1007B0002846CDE90089FFF773FF00BFD1E72DE997
:1007C000FC4305460C4616461F46DDE909890CB96F
:1007D000BDE8FC832846FFF753FF3B4632462146DF
:1007E0002846CDE90089FFF75BFF00BFF0E74183B2
:1007F00070470183704700BFFEE701B502E0009833
:10080000401E009000980028F9D108BD2DE9FF5F37
:1008100005460E469046C8F101000FFA80F94FF0E8
:10082000010A4FEA480040420FFA80FB0027444685
:1008300006EB080291B2A8B2039A00F0BDF9A6EB4C
:10084000080291B2A8B2039A00F0B6F9B1B205EB72
:10085000080290B2039A00F0AFF9B1B2A5EB08021A
:1008600090B2039A00F0A8F94EE0B9F1000F09DB4D
:10087000601E04B20BF102000FFA80FB09EB0B00C3
:100880000FFA80F9781C07B20AF102000FFA80FA19
:1008900009EB0A000FFA80F9321991B2EA1990B205
:1008A000039A00F089F9321991B2EA1B90B2039AC7
:1008B00000F082F9321B91B2EA1990B2039A00F06B
:1008C0007BF9321B91B2EA1B90B2039A00F074F9E3
:1008D000F21991B22A1990B2039A00F06DF9F21947
:1008E00091B22A1B90B2039A00F066F9F21B91B202
:1008F0002A1990B2039A00F05FF9F21B91B22A1BF9
:1009000090B2039A00F058F9A742AEDBBDE8FF9F12
:100910002DE9FC5F05460E4617469946C7F10100D2
:100920000FFA80FA4FF0010B7800404200B20190BC
:100930004FF000083C46F21991B2A8B24A4600F0C6
:100940003BF9F21B91B2A8B24A4600F035F9B1B2B8
:10095000EA1990B24A4600F02FF9B1B2EA1B90B200
:100960004A4600F029F9B3B205EB070C1FFA8CF2E6
:10097000B1B2A5EB070C1FFA8CF0CDF8009000F097
:1009800093F868E0BAF1000F09DB601E04B2019829
:10099000801C00B20190019850440FFA80FA08F1CF
:1009A00001000FFA80F80BF102000FFA80FB0AEB4E
:1009B0000B000FFA80FA06EB040C1FFA8CF305EB20
:1009C000080C1FFA8CF206EB040C1FFA8CF1A5EB55
:1009D000080C1FFA8CF0CDF8009000F065F8A6EB3B
:1009E000040C1FFA8CF3A5EB080C1FFA8CF2A6EB93
:1009F000040C1FFA8CF105EB080C1FFA8CF0CDF8F3
:100A0000009000F051F806EB080C1FFA8CF3A5EBF0
:100A1000040C1FFA8CF206EB080C1FFA8CF105EBA4
:100A2000040C1FFA8CF0CDF8009000F03DF8A6EB16
:100A3000080C1FFA8CF3A5EB040C1FFA8CF2A6EB42
:100A4000080C1FFA8CF105EB040C1FFA8CF0CDF8A2
:100A5000009000F029F8A04594DBBDE8FC9F000061
:100A60002DE9F84304460D4616461F46DDF8209052
:100A7000B44202DDA04634464646BD4202DDA846E9
:100A80003D4647461FFA89F03B46324629460090CC
:100A9000204600F0DBF804210248FFF7AAFEBDE87B
:100AA000F8830000000802402DE9FF5F04460D4670
:100AB00016461F463F480088A04203DC3D48008898
:100AC000401E84B23B480088B04203DC39480088AD
:100AD000401E86B237484088A84203DC354840882B
:100AE000401E85B233484088B84203DC3148408814
:100AF000401E87B2B44202DD01943446019EBD42DD
:100B000002DD01953D46019F301B0FFA80F9781BED
:100B10000FFA80F8B9F1000F02D0B8F1000F0AD136
:100B20000E9880B23B46324629460090204600F09F
:100B30008DF8BDE8FF9FB44201DA012001E04FF0DB
:100B4000FF300390BD4201DA012001E04FF0FF3099
:100B50000290C14501DD494601E0C8F100010846A7
:100B600001EBD07149100FFA81FA1FE029462046A7
:100B70000E9A00F021F8B44202D1BD4200D116E035
:100B8000D346DA46C9F10000834506DDAAEB08002A
:100B90000FFA80FA0398204484B2C34506DA0AEBC0
:100BA00009000FFA80FA0298284485B2DEE700BFF8
:100BB00000BFBEE74C00002070B505460E46144647
:100BC00033462A463146284600F024FB2C2000F00C
:100BD000EDFAC4F3072000F003FBE0B200F000FBE5
:100BE00070BD2DE9F84305460E4617469846089C09
:100BF00033463A46314628460094FFF755FF4346B0
:100C00002A46314628460094FFF74EFF43463A46AF
:100C1000314638460094FFF747FF43463A4641467F
:100C200028460094FFF740FFBDE8F88338B5044636
:100C3000A0B20090044843880088401E82B2002180
:100C4000084600F003F838BD4C0000202DE9F047BD
:100C500005460E4617469846DDF8209043463A462C
:100C60003146284600F0D6FA2C2000F09FFA781B77
:100C7000401CA8EB0601491C00FB01F404211B48A1
:100C8000FFF7B5FD4FF400511948FFF7B2FD012100
:100C9000184800F0C0FDB4F5803F02D34FF6FF7056
:100CA00000E0204682B24946124800F0BDFC00BF79
:100CB000104800F0F3FC0028FAD1B4F5803F0BD3C4
:100CC000601C82B249460B4800F0AEFC00BF0948E8
:100CD00000F0E4FC0028FAD104210448FFF789FD64
:100CE0000021044800F097FDBDE8F08700080240AD
:100CF000000C0240005001401CB5012000210B46B1
:100D00000246CDE9001041031A48FFF758FD0120C3
:100D100000210B460246CDE9001004211648FFF7DA
:100D20004EFD0020012103460A46CDE900100903CB
:100D30001048FFF744FD04210F48FFF75AFD00213A
:100D40000E4800F0E3FC0D4800F034FC00F01EF803
:100D500000200B4908800B490880F0200A490880D0
:100D60004FF4A0704880012008714FF6FF70FFF724
:100D70005DFF1CBD000C0240000802400050014015
:100D80004A000020480000204C00002010B54FF41D
:100D900080519948FFF72BFD44F62060FFF72DFDA9
:100DA0004FF480519448FFF724FD44F62060FFF78C
:100DB00024FD012000F0FAF94CF25030FFF71DFD40
:100DC000CB2000F0F3F9392000F00AFA2C2000F0D3
:100DD00007FA002000F004FA342000F001FA0220A3
:100DE00000F0FEF9CF2000F0E1F9002000F0F8F962
:100DF000C12000F0F5F9302000F0F2F9E82000F011
:100E0000D5F9852000F0ECF9002000F0E9F9782010
:100E100000F0E6F9EA2000F0C9F9002000F0E0F95E
:100E2000002000F0DDF9ED2000F0C0F9642000F0B2
:100E3000D7F9032000F0D4F9122000F0D1F9812075
:100E400000F0CEF9F72000F0B1F9202000F0C8F949
:100E5000C02000F0ABF9232000F0C2F9C12000F05F
:100E6000A5F9102000F0BCF9C52000F09FF93E2044
:100E700000F0B6F9282000F0B3F9C72000F096F989
:100E8000862000F0ADF9362000F090F9482000F0FF
:100E9000A7F93A2000F08AF9552000F0A1F9B12015
:100EA00000F084F9002000F09BF9182000F098F978
:100EB000B62000F07BF9082000F092F9822000F0C3
:100EC0008FF9272000F08CF9F22000F06FF9002054
:100ED00000F086F92A2000F069F9002000F080F97E
:100EE000002000F07DF9002000F07AF9EF2000F0FA
:100EF00077F92B2000F05AF9002000F071F900205A
:100F000000F06EF9012000F06BF93F2000F068F965
:100F1000262000F04BF9012000F062F9E02000F0FB
:100F200045F90F2000F05CF9312000F059F92B2031
:100F300000F056F90C2000F053F90E2000F050F9A3
:100F4000082000F04DF94E2000F04AF9F12000F0A1
:100F500047F9372000F044F9072000F041F910204C
:100F600000F03EF9032000F03BF90E2000F038F9C4
:100F7000092000F035F9002000F032F9E12000F0FE
:100F800015F9002000F02CF90E2000F029F91420AA
:100F900000F026F9032000F023F9112000F020F9D9
:100FA000072000F01DF9312000F01AF9C12000F0EF
:100FB00017F9482000F014F9082000F011F90F206B
:100FC00000F00EF90C2000F00BF9312000F008F9C8
:100FD000362000F005F90F2000F002F9112000F092
:100FE000E5F80648FFF709FC292000F0DFF82C207F
:100FF00000F0DCF810BD0000000C024040420F0081
:101000002DE9F84F0746884691461C46DDF82CB07E
:101010002A4807802A48A0F80080207827490988B4
:10102000084428490988884208DD607824490988ED
:101030000844234908800020204908801FFA8BF0CB
:10104000009060781E490988084483B220781B49C3
:101050000988084482B21A48018818480088FFF7B6
:10106000F5FD00251EE0A9F12000617800FB01508C
:10107000616831F810A0002610E00AFA06F000F4CA
:10108000004050B10E4A12882A4491B20B4A12888D
:10109000324490B20A9AFFF78FFD761C2078B04256
:1010A000EBD86D1C6078A842DDD820780349098808
:1010B000084402490880BDE8F88F0000480000207D
:1010C0004A0000204C0000202DE9FC4705460E4652
:1010D00014461F46DDE90A9AA846194805801948B2
:1010E000068027E020780A2813D17878401C15491B
:1010F000098808441349088060780D2804D100202D
:101100000F490880641C02E00D48A0F80080641CB0
:1011100010E020780D2801D1641C0BE0CDE9009A85
:1011200014F8012B3B460748018805480088FFF763
:1011300067FF00BF20780028D4D1BDE8FC870000FD
:10114000480000204A00002010B50446362000F078
:101150002DF81CB9582000F043F810E0012C03D101
:10116000882000F03DF80AE0022C03D1282000F08E
:1011700037F804E0032C02D1E82000F031F80CB17C
:10118000012C08D1F020084908804FF4A070488055
:101190000120087107E04FF4A07003490880F02097
:1011A00048800020087110BD4C00002010B5044696
:1011B0004FF400510748FFF71AFB04210648FFF7D8
:1011C00016FB2146054800F005FB04210248FFF705
:1011D00010FB10BD000C024000080240005001400E
:1011E00010B504464FF400510748FFF702FB0421F5
:1011F0000648FFF7FCFA2146054800F0EBFA042107
:101200000248FFF7F6FA10BD000C02400008024049
:10121000005001402DE9F04104460D4616461F4698
:101220002A20FFF7C3FF2012FFF7DAFFE0B2FFF733
:10123000D7FF3012FFF7D4FFF0B2FFF7D1FF2B201A
:10124000FFF7B4FF2812FFF7CBFFE8B2FFF7C8FFA4
:101250003812FFF7C5FFF8B2FFF7C2FFBDE8F08113
:1012600000BFFEE770477047F0B500210022002460
:10127000022500260223324F3F6807F00C0121B1FE
:10128000042905D0082937D105E02E4F076036E044
:101290002D4F076033E02A4F3F1F3F68C7F380564A
:1012A000274F3F1F3F6807F03F036EB1264FB7FB44
:1012B000F3F7DFF88CC0ACF1040CDCF800C0CCF321
:1012C000881C07FB0CF40CE01E4FB7FBF3F7DFF8AC
:1012D00070C0ACF1040CDCF800C0CCF3881C07FB38
:1012E0000CF4174F3F1F3F68C7F301477F1C7D0079
:1012F000B4FBF5F7076002E0124F076000BF00BFC4
:101300000F4F3F6807F0F0010909104F7A5C07683A
:10131000D74047600A4F3F6807F4E051890A0B4FF6
:101320007A5C4768D7408760054F3F6807F46041A3
:10133000490B064F7A5C4768D740C760F0BD000094
:10134000083802400024F40000127A001400002043
:101350001CB504464CB90520032100231A46CDE9EB
:101360000010E0210A48FFF7F3F9012C09D105200C
:10137000032100231A46CDE9001038210548FFF764
:10138000E7F9032C03D10521034800F0BDF91CBD8A
:101390000000024000040240003001401CB5044639
:1013A000A4B90520032100231A46CDE900104FF40B
:1013B00080611648FFF7CCF90520032100231A4667
:1013C000CDE900100C211248FFF7C2F9012C0AD117
:1013D0000520032100231A46CDE900104FF4604197
:1013E0000A48FFF7B5F9022C09D105200321002393
:1013F0001A46CDE900100D210648FFF7A9F9032C84
:1014000003D10521044800F07FF91CBD000402400F
:101410000008024000200240003800401CB504468D
:101420004CB90620032100231A46CDE900103821CB
:101430000B48FFF78DF9012C0AD106200321002368
:101440001A46CDE900104FF4E0510648FFF780F945
:10145000032C03D10621044800F056F91CBD0000FE
:101460000004024000080240003C00401CB5044655
:101470004CB90520032100231A46CDE90010642150
:101480000B48FFF765F9012C0AD105200321002341
:101490001A46CDE900104FF4E0410548FFF758F92E
:1014A000032C03D10521034800F02EF91CBD0000D8
:1014B00000100240003401401CB5044654B9052018
:1014C000032100231A46CDE900104FF46071104843
:1014D000FFF73EF9012C13D10520032100231A4602
:1014E000CDE90010E1020A48FFF732F90520032197
:1014F00000231A46CDE90010C0210648FFF728F95D
:10150000032C03D10521044800F0FEF81CBD0000A7
:1015100000140240001C0240005001401CB504466B
:1015200054B90520032100231A46CDE900104FF4D9
:10153000E0410548FFF70CF9032C03D105210348CE
:1015400000F0E2F81CBD0000001802400054014009
:1015500001460C4A914200D10B480C4A914200D1FD
:101560000B480C4A914200D10B480C4A914200D1E1
:101570000B480C4A914200D10B480C4A914200D1D1
:101580000B487047003001405400002000380040F4
:101590006C000020003C004084000020003401402A
:1015A0009C00002000500140B40000200054014085
:1015B000CC00002070B505462846FFF7C9FF044659
:1015C00016496068884206D31548006840F48000D8
:1015D0001349086005E01248006840F40010104903
:1015E00008600E49E068884206D30D48006840F460
:1015F00080000B49086005E00948006840F40010CD
:1016000007490860002007494861C86108624862CC
:101610008862C86208634863886370BD10640240D2
:1016200030380240FC0000202DE9F04105460E460E
:1016300017462846FFF78CFF04466068406810B1E3
:101640000020BDE8F081A68205F10C001249486037
:101650000846076104F11400886000208861206852
:1016600008604020C860C00108628010C8613D2148
:101670006068FEF7CBFE08496068FEF759FF6068B6
:10168000006840F0010061680860A88840F002002E
:10169000A8800120D5E70000FC00002070B50446BA
:1016A0002046FFF755FF0546E868406850B968686E
:1016B000406838B9208900F0030018B1208900F093
:1016C000800008B1012070BD0020FCE710B50022A9
:1016D000028802F441520B884C8823438C882343B0
:1016E000CC8823430C8923434C8923438C8923438F
:1016F000CC8923431A430280838B4FF2FF7423402B
:1017000083830B8A038210BD704700007CB50446BA
:101710000D462A4884420AD100204FF482712023CA
:101720000246CDE900102946204600F099F82448E9
:1017300084420AD100204FF4827120230246CDE971
:1017400000102946204600F08BF81E4884420AD13A
:1017500000204FF4827120230246CDE90010294673
:10176000204600F07DF8184884420AD100204FF44A
:10177000827120230246CDE900102946204600F060
:101780006FF8124884420AD100204FF4827120235E
:101790000246CDE900102946204600F061F80C48C9
:1017A00084420AD100204FF4827120230246CDE901
:1017B00000102946204600F053F87CBD003001405F
:1017C00000380040003C004000340140005001401F
:1017D000005401400246108800F0400008B9002083
:1017E000704700BF108900F003000028FAD010896C
:1017F00000F080000028F5D1918100BF108900F031
:1018000003000028FAD0108900F080000028F5D1EC
:101810009089C0B2E4E702461388C3F3C02013885E
:1018200023F040031380012904D1138843F400639B
:10183000138003E0138823F400631380138843F0BC
:101840004003138070470021018041808180C18066
:10185000018141818181C18107210182704700009E
:101860002DE9F04385B004460E4615461F46DDE9D6
:101870000C896846FFF7E7FF4D4884420BD14D487D
:10188000006840F480504B4908603046FFF760FD27
:101890000020ADF80400484884420DD14548001F9F
:1018A000006840F480404349091F08603046FFF754
:1018B00075FD0020ADF80400404884420DD13D483C
:1018C000001F006840F400403A49091F0860304694
:1018D000FFF7A4FD0020ADF80400394884420BD185
:1018E0003448006840F40050324908603046FFF741
:1018F000BDFD0020ADF80400324884420BD12D48D4
:10190000006840F480102B4908603046FFF7D4FD92
:101910000020ADF804002C4884420BD12548006813
:1019200040F40010234908603046FFF7F7FD00201F
:10193000ADF80400ADF80C700020ADF80000ADF873
:101940000E90ADF802804FF40070ADF80A002DB98A
:101950000020ADF80600ADF8080019E0012D06D111
:101960000020ADF806000120ADF8080010E0022DBF
:1019700006D10220ADF806000020ADF8080007E00F
:10198000032D05D10220ADF806000120ADF80800B6
:10199000208820F04000208069462046FFF796FE10
:1019A000208840F04000208005B0BDE8F0830000B2
:1019B000003001404438024000380040003C004004
:1019C00000340140005001400054014070470000C5
:1019D0000CB50020019000904148006840F4803030
:1019E0003F49086000BF3E48006800F400300090A6
:1019F0000198401C0190009818B90198B0F5A04FCB
:101A0000F1D13748006800F4003010B10120009097
:101A100001E0002000900098012860D1304840305B
:101A2000006840F080502E49403108602D48006821
:101A300040F440402B490860294808300068284994
:101A4000083108600846006840F400400860084615
:101A5000006840F4A05008602348091F0860081F70
:101A6000006840F08070091F086000BF1C480068D3
:101A700000F000700028F9D01A48006840F4803067
:101A80001849086000BF1748406800F480300028FB
:101A9000F9D01448006840F400301249086000BFD3
:101AA0001048406800F400300028F9D040F205707A
:101AB0000E4908600A480830006820F00300084911
:101AC000083108600846006840F00200086000BF66
:101AD00003480830006800F00C000828F8D10CBD5D
:101AE0000038024000700040085A4007003C0240A5
:101AF00010B5FEF74DFD10BD10B51548006840F457
:101B00007000134908601348006840F00100114953
:101B1000086000200F49083108600E4800680E492F
:101B200008400C4908600D48091D0860081F00683E
:101B300020F48020091F0860002006490C3108604D
:101B4000FFF746FF4FF0006001498039086010BD83
:101B500088ED00E000380240FFFFF6FE1030002460
:101B600000BFFEE71CB5FFF7C7FFFEF721FDFFF73B
:101B7000C3F80320FFF7E8FA4AF25420FFF756F8BB
:101B80004FF4FC6328223C210846FEF73FFE4FF449
:101B9000784323223C210846FEF7BAFE1F20642327
:101BA000DC22142100907820FFF71BF800205A2334
:101BB000D2221E2100908220FEF752FF05207823BA
:101BC0004FF49B72194600900A20FEF76DFF40F219
:101BD0001D5000210F4B10A2CDE9001082214120A1
:101BE000FFF772FA40F21D5000210A4B0FA2CDE917
:101BF000001096213C20FFF767FA4FF6E4300021F1
:101C00000F4B10A2CDE90010E5212D20FFF75CFA63
:101C100000BFFEE73800002053544D3332463420D5
:101C2000446973636F76657279000000494C4939E5
:101C3000333431204C4344204D6F64756C65000093
:101C40003000002073746D333266342D6469736321
:101C50006F766572792E636F6D0000004FF04070F3
:101C6000E1EE100A7047000610160B0C0D0E0F1057
:101C7000112F38393A3B3C44454600000000000033
:101C80000000000000000000000000000000001044
:101C900000100010001000100010000000100000E4
:101CA00000000028002800280000000000000000BC
:101CB00000000000000000240024007C00240048F4
:101CC000007C00480048000000000038005400502C
:101CD00000380014005400540038001000000020A8
:101CE0000054005800300028005400140008000080
:101CF00000000010002800280010003400480048B0
:101D0000003400000000001000100010000000006F
:101D1000000000000000000000000008001000208B
:101D200000200020002000200020001000080020DB
:101D30000010000800080008000800080008001053
:101D400000200010003800100028000000000000F3
:101D50000000000000000000000000100010007CE7
:101D60000010001000000000000000000000000053
:101D70000000000000000000001000100010000033
:101D8000000000000000000000380000000000001B
:101D90000000000000000000000000000000000043
:101DA00000100000000000080008001000100010E3
:101DB0000010002000200000000000380044004413
:101DC00000540044004400440038000000000010AB
:101DD0000030005000100010001000100010000033
:101DE00000000038004400440004000800100020F7
:101DF000007C0000000000380044000400180004CB
:101E0000000400440038000000000008001800280A
:101E100000280048007C0008000800000000007C4A
:101E20000040004000780004000400440038000036
:101E300000000038004400400078004400440044A2
:101E4000003800000000007C0004000800100010B2
:101E50000020002000200000000000380044004462
:101E600000380044004400440038000000000038FE
:101E7000004400440044003C0004004400380000DA
:101E80000000000000000010000000000000000042
:101E90000010000000000000000000000010000022
:101EA0000000000000100010001000000000000CF6
:101EB000003000400030000C000000000000000076
:101EC00000000000007C0000007C0000000000001A
:101ED000000000000000006000180004001800600E
:101EE000000000000000003800440004000800105A
:101EF0000010000000100000000000380044004CFA
:101F00000054005C00400040003800000000001059
:101F10000028002800280028007C0044004400001D
:101F2000000000780044004400780044004400446D
:101F300000780000000000380044004000400040ED
:101F400000400044003800000000007000480044D9
:101F50000044004400440048007000000000007C81
:101F600000400040007C004000400040007C000039
:101F70000000007C0040004000780040004000402D
:101F80000040000000000038004400400040005CB9
:101F900000440044003800000000004400440044B5
:101FA000007C00440044004400440000000000386D
:101FB0000010001000100010001000100038000089
:101FC00000000004000400040004000400040044B5
:101FD000003800000000004400480050006000503D
:101FE000004800480044000000000040004000405D
:101FF0000040004000400040007C00000000004421
:10200000006C006C00540044004400440044000094
:10201000000000440064006400540054004C004C74
:102020000044000000000038004400440044004424
:1020300000440044003800000000007800440044E0
:1020400000440078004000400040000000000038DC
:10205000004400440044004400440054003800049C
:102060000000007800440044004400780048004824
:102070000044000000000038004400400030000828
:1020800000040044003800000000007C0010001034
:1020900000100010001000100010000000000044AC
:1020A0000044004400440044004400440038000060
:1020B00000000044004400440028002800280010CC
:1020C000001000000000004400440054005400547C
:1020D000006C0028002800000000004400280028B0
:1020E00000100010002800280044000000000044F8
:1020F000004400280028001000100010001000000C
:102100000000007C000400080010001000200040C7
:10211000007C0000000000180010001000100010EB
:102120000010001000100010001800200020001007
:10213000001000100010000800080000000000302F
:10214000001000100010001000100010001000100F
:1021500000300010002800280044000000000000AB
:10216000000000000000000000000000000000006F
:10217000000000000000000000FE00200010000031
:10218000000000000000000000000000000000004F
:10219000000000380044003C0044004C00340000C3
:1021A0000000004000400058006400440044006407
:1021B000005800000000000000000038004400400B
:1021C0000040004400380000000000040004003417
:1021D000004C00440044004C0034000000000000AB
:1021E000000000380044007C00400044003800003B
:1021F0000000000C0010007C001000100010001007
:10220000001000000000000000000034004C0044FA
:102210000044004C003400040078004000400058A6
:10222000006400440044004400440000000000102A
:1022300000000070001000100010001000100000DE
:1022400000000010000000700010001000100010CE
:102250000010001000E00040004000480050006006
:102260000050004800440000000000700010001002
:10227000001000100010001000100000000000000E
:102280000000007800540054005400540054000032
:1022900000000000000000580064004400440044B6
:1022A000004400000000000000000038004400442A
:1022B0000044004400380000000000000000005806
:1022C00000640044004400640058004000400000E6
:1022D00000000034004C00440044004C0034000472
:1022E000000400000000005800640040004000406E
:1022F00000400000000000000000003800440030F2
:102300000008004400380000000000200020007891
:102310000020002000200020001800000000000025
:1023200000000044004400440044004C003400001D
:10233000000000000000004400440028002800289D
:102340000010000000000000000000540054005481
:10235000006C00280028000000000000000000447D
:1023600000280010001000280044000000000000B9
:102370000000004400440028002800100010001055
:10238000006000000000007C0008001000200040F9
:10239000007C000000000018001000100010002059
:1023A0000020001000100010001800100010001095
:1023B000001000100010001000100010001000307D
:1023C000001000100010000800080010001000109D
:1023D00000300000000000000074004C000000000D
:1023E00000000000000000000000000000000000ED
:1023F00000000000000000000000000000000000DD
:10240000000000000000000000000000000C000CB4
:10241000000C000C000C000C000C000C000C000C5C
:10242000000C0000000C000C000000000000000088
:10243000001B001B001B001B001B00000000000015
:10244000000000000000000000000000000000008C
:10245000000000008019801980198019C07FC07F9A
:1024600080190033C07FC07F003300330033003356
:102470000000000000000000001E003F8075806525
:102480000074003C001E0007800580658065807533
:10249000003F001E0004000400000000007000D88F
:1024A00040D8C0D880D900730006000C801BC0360D
:1024B000C066C046C00680030000000000000000A7
:1024C000001E003F003300330033001E000CC03CF0
:1024D000C066806380618063C03E801C0000000095
:1024E00000000000000C000C000C000C000C0000B0
:1024F00000000000000000000000000000000000DC
:10250000000000000000800000010003000600063B
:102510000004000C000C000C000C000C000C00046B
:1025200000060006000300018000002000100018D3
:10253000000C000C00040006000600060006000661
:1025400000060004000C000C001800100020000021
:10255000000C002D003F001E0033000000000000B2
:10256000000000000000000000000000000000006B
:102570000000000000000000000C000C000C000C2B
:10258000C0FFC0FF000C000C000C000C000000009D
:10259000000000000000000000000000000000003B
:1025A000000000000000000000000000000000002B
:1025B000000C000C000400040008000000000000F3
:1025C000000000000000000000000000001E001ECF
:1025D00000000000000000000000000000000000FB
:1025E00000000000000000000000000000000000EB
:1025F0000000000000000000000C000C00000000C3
:1026000000000000000300030003000600060006AF
:102610000006000C000C000C000C0018001800183C
:102620000000000000000000001E003F0033806139
:1026300080618061806D806D806180618061003328
:10264000003F001E00000000000000000006000E19
:10265000001E0036002600060006000600060006E2
:102660000006000600060006000000000000000052
:10267000001E003F807380618061800100030006BE
:10268000000C001800300060807F807F0000000098
:1026900000000000001C003E006300630003000E09
:1026A000000E00038001800180618073003F001EE6
:1026B00000000000000000000006000E000E001EDA
:1026C000001E0016003600360066807F807F000600
:1026D000000600060000000000000000007F007FF0
:1026E000006000600060006E007F806380018001F8
:1026F00080618073003F001E0000000000000000A9
:10270000001E003F803380610060006E007F807398
:102710008061806180618033003F001E0000000006
:1027200000000000807F807F80010003000300061E
:102730000006000C000C000C00080018001800181F
:102740000000000000000000001E003F8063806168
:1027500080610021001E003F806180618061806196
:10276000003F001E0000000000000000001E003FAF
:1027700000738061806180618073803F801D800173
:1027800080610073003F001E000000000000000098
:102790000000000000000000000C000C0000000021
:1027A0000000000000000000000C000C0000000011
:1027B0000000000000000000000000000000000C0D
:1027C000000C00000000000000000000000C000CE5
:1027D0000004000400080000000000000000800069
:1027E0008003000E003800600038000E8003800077
:1027F00000000000000000000000000000000000D9
:1028000000000000807F807F00000000807F807FCC
:1028100000000000000000000000000000000000B8
:1028200000000000000000400070001C0007800154
:102830000007001C007000400000000000000000C5
:1028400000000000001F803FC071C060C000C001D8
:1028500080030007000E000C000C0000000C000CB0
:102860000000000000000000001E003F8031807169
:102870008063806F806D806D806F80670060003244
:10288000003E001C0000000000000000000E000ED2
:10289000001B001B001B001B80318031803F803FEC
:1028A0008031C060C060C060000000000000000017
:1028B000007C007E0063006300630063007E007E96
:1028C0000063806180618063007F007E0000000003
:1028D00000000000001E003F803180610060006049
:1028E000006000600060006080618031003F001E79
:1028F0000000000000000000007C007F0063806397
:1029000080618061806180618061806100630063BB
:10291000007E007C0000000000000000807F807FBF
:102920000060006000600060007F007F0060006069
:1029300000600060807F807F0000000000000000D9
:10294000807F807F0060006000600060007F007F0B
:102950000060006000600060006000600000000037
:1029600000000000001E003F8031806100600060B8
:10297000006080638063806180618031803F001EE1
:1029800000000000000000008061806180618061C3
:1029900080618061807F807F8061806180618061F3
:1029A000806180610000000000000000003F003FE7
:1029B000000C000C000C000C000C000C000C000CB7
:1029C000000C000C003F003F000000000000000071
:1029D00080018001800180018001800180018001EF
:1029E0008001806180618073003F001E0000000054
:1029F00000000000C0608061006300660066006C3B
:102A00000078007C00660066006380618061C060C1
:102A10000000000000000000006000600060006036
:102A200000600060006000600060006000600060A6
:102A3000807F807F0000000000000000C071C07136
:102A4000C07BC07AC06AC06AC06EC064C060C0602B
:102A5000C060C060C060C0600000000000000000F6
:102A600080718071807980798079806D806D806DD2
:102A700080658067806780678063806300000000F6
:102A800000000000001E003F003380618061806113
:102A9000806180618061806180610033003F001E41
:102AA0000000000000000000007E007F8063806165
:102AB000806180618063007F007E00600060006054
:102AC000006000600000000000000000001E003FE9
:102AD0000033806180618061806180618061806598
:102AE00080670033803F401E0000000000000000AF
:102AF000007E007F8063806180618063007F007E54
:102B000000660063006380618061C06000000000B7
:102B100000000000000E001F8031803100300038BE
:102B2000001E00078003806180618031003F001E2D
:102B30000000000000000000C0FFC0FF000C000CFF
:102B4000000C000C000C000C000C000C000C000C25
:102B5000000C000C0000000000000000806180619B
:102B6000806180618061806180618061806180615D
:102B700080618073003F001E000000000000000024
:102B8000C060C060C060803180318031001B001B9C
:102B9000001B001B000E000E000E000400000000D1
:102BA00000000000C0C0C0C0C0C0C0C0C0C0C0CC19
:102BB000804C804C805E8052805280738061806146
:102BC0000000000000000000C0C080608061003391
:102BD000003B001E000C000C001E001F003B80711B
:102BE0008061C0C00000000000000000C0C0806123
:102BF000806100330033001E001E000C000C000C2E
:102C0000000C000C000C000C000000000000000094
:102C1000803F803F8001000300030006000C000C91
:102C20000018001800300060807F807F00000000E6
:102C30000000000F000F000C000C000C000C000C3A
:102C4000000C000C000C000C000C000C000C000C24
:102C5000000C000F000F0000001800180018000CF6
:102C6000000C000C000C0006000600060006000325
:102C700000030003000000000000001E001E00060C
:102C80000006000600060006000600060006000614
:102C900000060006000600060006001E001E0000DA
:102CA000000C000C001E00120033003380618061B4
:102CB0000000000000000000000000000000000014
:102CC0000000000000000000000000000000000004
:102CD00000000000000000000000000000000000F4
:102CE0000000E0FF0000000000380018000C0000A9
:102CF00000000000000000000000000000000000D4
:102D000000000000000000000000000000000000C3
:102D100000000000001F803F80618001801F803F15
:102D200080618063807FC0380000000000000000E8
:102D30000060006000600060006E007F8073806152
:102D40008061806180618073007F006E0000000000
:102D5000000000000000000000000000001E003F16
:102D6000807380610060006080618073003F001E9E
:102D7000000000000000000080018001800180014F
:102D8000801D803F8073806180618061806180737D
:102D9000803F801D000000000000000000000000D7
:102DA00000000000001E003F00738061807F807F74
:102DB00000608071003F001E000000000000000065
:102DC000C007C00F000C000C807F807F000C000C3F
:102DD000000C000C000C000C000C000C00000000AB
:102DE00000000000000000000000801D803F807394
:102DF00080618061806180618073803F801D80017F
:102E00008063007F003E00000060006000600060A2
:102E1000006F807F807180618061806180618061EE
:102E200080618061000000000000000000060006D4
:102E300000000000003E003E0006000600060006FE
:102E40000006000600060006000000000000000664
:102E5000000600000000003E003E000600060006DE
:102E60000006000600060006000600060046007E7A
:102E7000003C000000600060006000608061006352
:102E80000066006C007C0076006300638061C060B7
:102E90000000000000000000003E003E00060006AA
:102EA00000060006000600060006000600060006F2
:102EB0000006000600000000000000000000000006
:102EC0000000000080DDC0FFC0CEC0CCC0CCC0CCB4
:102ED000C0CCC0CCC0CCC0CC0000000000000000C2
:102EE0000000000000000000006F807F80718061A2
:102EF000806180618061806180618061000000008C
:102F0000000000000000000000000000001E003F64
:102F1000807380618061806180618073003F001EEA
:102F20000000000000000000000000000000006E33
:102F3000007F807380618061806180618073007F29
:102F4000006E006000600060006000000000000093
:102F50000000801D803F807380618061806180619E
:102F60008073803F801D800180018001800100000E
:102F700000000000000000000067803F00390030C2
:102F80000030003000300030003000300000000021
:102F9000000000000000000000000000001E803F54
:102FA00080610060007F803F80018061007F001EA3
:102FB00000000000000000000000000800180018D9
:102FC000007F007F00180018001800180018001873
:102FD000801F800F000000000000000000000000C3
:102FE000000000008061806180618061806180619B
:102FF00080618063807F803D000000000000000051
:103000000000000000000000C0608031803180318D
:10301000001B001B001B000E000E0006000000003D
:1030200000000000000000000000000080DD80DDE6
:1030300080DD005500550055007700770022002202
:103040000000000000000000000000000000000080
:10305000806100330033001E000C000C001E0033A2
:10306000003380610000000000000000000000004C
:10307000000080618061803100330033001B001B41
:10308000001B000E000E000E001C007C00700000F3
:103090000000000000000000C07FC07F800100032E
:1030A0000006000C00180030C07FC07F0000000048
:1030B00000008003800700060006000600060006E8
:1030C000000E001C001C000E000600060006000694
:1030D00000068007800300060006000600060006C2
:1030E00000060006000600060006000600060006B0
:1030F000000600060006000600060038003C000C32
:10310000000C000C000C000C000E00070007000E65
:10311000000C000C000C000C000C003C00380000FF
:103120000000000000000000000000008038807FE8
:103130000047000000000000000000000000000048
:10314000000000000000000000000000000000007F
:10315000000000000000000000000000000000006F
:10316000000000000000000000000000000000005F
:10317000000000000000E003E003E003E003E003E0
:10318000E003E003E003C003C003C001C001C001CD
:10319000C001C001000000000000E003E003E00304
:1031A000000000000000000000003C1E3C1E3C1E11
:1031B0003C1E3C1E3C1E3C1E0000000000000000A7
:1031C00000000000000000000000000000000000FF
:1031D0000000000000000000000000000000CE0120
:1031E000CE03DE039E039C039C07FF3FFF7F38074F
:1031F000380F780F780F780EFFFFFFFFF01EF01CDE
:10320000E01CE03CE03DE039000000000000000070
:103210000000FC03FE0FEE1FE01EE01EE01EE01E9D
:10322000E01FE00FE007F003FC01FE01FE01FE01DC
:10323000FE01FE01FE01FE3DFC3FF00FE001E0015A
:10324000000000000000033E07F78FE78EE79EE3D3
:10325000BCE3B8E7F8E7F0F7E03FC001FF03FF0782
:10326000F307F30FF31EF33CF338F3787FF03FE0FE
:1032700000000000000000000000E007F80F780FD9
:10328000781F781F781F780FF00FE00F801FC37F23
:10329000C3FBE7F3F7F1F7F0FFF07FF03EF87F7C38
:1032A000FF3FEF1F00000000000000000000E003EF
:1032B000E003E003E003E003C003C00100000000FE
:1032C00000000000000000000000000000000000FE
:1032D00000000000000000000000000000000000EE
:1032E00000003F007C00F001E001C003C007800740
:1032F0008007800F000F000F000F000F000F000F5E
:10330000800F80078007C007C003E001F0017C0048
:103310003F000F000000007E001FC007C003E00157
:10332000F001F000F000F8007800780078007800F4
:1033300078007800F800F000F000F001E001C00330
:10334000C007001F007E00780000E003C003C0013A
:10335000CE39FF3F7F3F20037003F807780F3C1FF3
:10336000380600000000000000000000000000001F
:10337000000000000000000000000000000000004D
:1033800000000000000000000000C001C001C001FA
:10339000C001C001C001C001FFFFFFFFC001C001AB
:1033A000C001C001C001C001000000000000000019
:1033B000000000000000000000000000000000000D
:1033C00000000000000000000000000000000000FD
:1033D00000000000E003E003E003E003E001E0019F
:1033E000E001C001800300000000000000000000B8
:1033F000000000000000000000000000FE3FFE3F53
:1034000000000000000000000000000000000000BC
:1034100000000000000000000000000000000000AC
:10342000000000000000000000000000000000009C
:10343000000000000000000000000000E003E003C6
:10344000E003E003000000000000000000000F00A7
:103450000F001E001E003C003C0078007800F000C9
:10346000F000E001E001C003C00380078007000F07
:10347000000F001E001E003C003C0078007800F0A9
:103480000000F007F80F7C1F3E3E1E3C1F7C1F7C97
:103490000F780F780F780F780F780F780F781F7CE0
:1034A0001F7C1E3C3E3E7C1FF80FF0070000000012
:1034B000000000000000F000F007F03FF03FF001D6
:1034C000F001F001F001F001F001F001F001F00174
:1034D000F001F001F001F001F001F001FF3FFF3FCA
:1034E00000000000000000000000E00FF83F7C3CFE
:1034F0003C003E003E003E003C003C007C00F800EA
:10350000F001E003C0078007000F001E003E003CF2
:10351000FE3FFE3F00000000000000000000F00F32
:10352000F81F7C1C3E003E003E003C003C00F800C2
:10353000F00FF80F7C003E001E001E001E001E0053
:103540003E007C1CF81FE01F00000000000000008F
:1035500000007800F800F800F801F803F807F80711
:10356000780F781E781E783C78787878FFFFFFFF18
:10357000780078007800780078007800000000007B
:10358000000000000000FC1FFC1FFC1F001E001EAE
:10359000001E001E001EE01FF81FFC007C003E0005
:1035A0003E001E003E003E003C007C1CF81FE01F59
:1035B00000000000000000000000FC01FE078E0F6C
:1035C000001F001E003E003C003CF83DFC3F3E7FDB
:1035D0001F7E0F3C0F3C0F3C0F3C0F3E1F1E3E1F3B
:1035E000FC0FF00300000000000000000000FF3F9F
:1035F000FF3FFF3F0F001E001E003C003800780018
:10360000F000F000E001E001C003C0038007800F7C
:10361000800F000F001F001F0000000000000000CE
:103620000000F807FC0F3E1F1E1E1E3E1E3E1E1E03
:103630003C1FF80FF007F80FFC1E3E3E1F3C1F7C9E
:103640000F7C0F7C1F3C3E3FFC1FF007000000007A
:10365000000000000000F007F80F7C1E3E3C1E3CFE
:103660001F7C1F7C1F7C1F7C1F3C3F3EFF1FEF0702
:103670001F001E001E003E003C00F838F03FE01F17
:10368000000000000000000000000000000000003A
:10369000000000000000E003E003E003E00300009E
:1036A000000000000000000000000000E003E00354
:1036B000E003E00300000000000000000000000044
:1036C00000000000000000000000E003E003E00351
:1036D000E003000000000000000000000000000007
:1036E000E003E003E003E003E001E001E001C003E8
:1036F0008003000000000000000000000000030044
:103700000F003F00FC00F003C00F003F00FE003F31
:10371000C00FF003FC003F000F000300000000009A
:103720000000000000000000000000000000000099
:1037300000000000000000000000FFFFFFFF00008D
:1037400000000000FFFFFFFF00000000000000007D
:103750000000000000000000000000000000000069
:1037600000000000000000E000F8007E801FE0077D
:10377000F8017E001F007E00F801E007801F007E38
:1037800000F800E000000000000000000000F01F52
:10379000FC3F3E381F381F381E001E003C007800DA
:1037A000F000E001C003C003C007C0070000000034
:1037B0000000C007C007C0070000000000000000B4
:1037C0000000F803FE0F1E1F0F3E7F3CFF78EF79CD
:1037D000C773C7F38FF38FF38FF39FF39FF3FF73D9
:1037E000FF7BF779003C1C1FFC0FF8030000000072
:1037F000000000000000000000000000E003E00303
:10380000F007F007F007780F780F7C0E3C1E3C1E87
:103810003E3CFE3FFF3F1F780F780FF007F007F0A8
:103820000000000000000000000000000000000098
:10383000F83FFC3F3E3C1E3C1E3C1E3C3E3C7C3C5C
:10384000F03FF83F7E3C1F3C1F3C0F3C0F3C1F3CB1
:10385000FE3FF83F000000000000000000000000F4
:1038600000000000FF01FF07871F003E003C007CB6
:1038700000780078007800780078007C007C003EBA
:10388000003F831FFF07FF01000000000000000051
:103890000000000000000000F07FFC7F7E781F78B1
:1038A0001F780F780F780F780F780F780F780F78D0
:1038B0000F781F781E787E78F87FE07F0000000088
:1038C000000000000000000000000000FF3FFF3F7C
:1038D000003E003E003E003E003E003EFE3FFE3FFA
:1038E000003E003E003E003E003E003EFF3FFF3FE8
:1038F00000000000000000000000000000000000C8
:10390000FF1FFF1F001E001E001E001E001E001EC7
:10391000FF1FFF1F001E001E001E001E001E001EB7
:10392000001E001E0000000000000000000000005B
:1039300000000000FE03FF0F871F003E007C007C9C
:10394000007800F800F87FF87FF80F780F7C0F7C84
:103950000F3E8F1FFF0FFE0300000000000000005D
:1039600000000000000000001F7C1F7C1F7C1F7CEB
:103970001F7C1F7C1F7C1F7CFF7FFF7F1F7C1F7CA9
:103980001F7C1F7C1F7C1F7C1F7C1F7C0000000095
:10399000000000000000000000000000FF3FFF3FAB
:1039A000E003E003E003E003E003E003E003E003FF
:1039B000E003E003E003E003E003E003FF3FFF3F39
:1039C00000000000000000000000000000000000F7
:1039D000FC1FFC1F7C007C007C007C007C007C00C9
:1039E0007C007C007C007C007C0078007800F8384B
:1039F000F03FC03F00000000000000000000000099
:103A0000000000001F3C1E3C3C3C783CF03CE03D8C
:103A1000E03FC03F803FC03FE03FF03DF03C783C9E
:103A20007C3C3E3C1F3C0F3C0000000000000000BE
:103A30000000000000000000003E003E003E003E8E
:103A4000003E003E003E003E003E003E003E003E86
:103A5000003E003E003E003EFF3FFF3F00000000F2
:103A60000000000000000000000000001FF81FFC24
:103A70001FFC3FFE3FFE3FFE7FFF77FF77FFF7F71C
:103A8000E7F7E7F3E7F3C7F307F007F007F007F00E
:103A90000000000000000000000000000000000026
:103AA0000F7C0F7C0F7E0F7F0F7F8F7F8F7FCF7FED
:103AB000EF7BEF79FF79FF78FF787F783F783F7869
:103AC0001F781F78000000000000000000000000C8
:103AD00000000000F007FC1F3E3E1F7C0F780F78AF
:103AE0000FF80FF80FF80FF80FF80FF80F780F789E
:103AF0001F7C3E3EFC1FF00700000000000000009D
:103B00000000000000000000FC3FFF3F1F3E0F3E92
:103B10000F3E0F3E0F3E1F3E3F3EFC3FF03F003E3C
:103B2000003E003E003E003E003E003E0000000021
:103B3000000000000000000000000000F007FC1F73
:103B40003E3E1F7C0F780F780FF80FF80FF80FF834
:103B50000FF80FF80F780F781F7C3E3EFC1FF80718
:103B60007C003F000F000300000000000000000088
:103B7000F03FFC3F7E3C3E3C1E3C1E3C3E3C3C3C01
:103B8000FC3CF03FE03FF03DF83C7C3C3E3C1E3CC2
:103B90001F3C0F3C0000000000000000000000007F
:103BA00000000000FC07FE1F0E3E003C003C003CF5
:103BB000003EC01FF80FFE037F001F000F000F0024
:103BC0001F203E3CFC3FF01F0000000000000000F2
:103BD0000000000000000000FFFFFFFFE003E00323
:103BE000E003E003E003E003E003E003E003E003BD
:103BF000E003E003E003E003E003E0030000000073
:103C00000000000000000000000000000F7C0F7C9E
:103C10000F7C0F7C0F7C0F7C0F7C0F7C0F7C0F7C4C
:103C20000F7C0F7C0F7C1E3C1E3C3E3EFC1FF007B1
:103C30000000000000000000000000000000000084
:103C400007F007F007F80F780F7C1E3C1E3C1E3E65
:103C50003C1E3C1F781F780FF80FF007F007F007A5
:103C6000E003E0030000000000000000000000008E
:103C70000000000003E003F003F007F0E7F3E7F3D0
:103C8000E7F3E773F77BF77FFF7F7F7F7F7F7E7FA1
:103C90007E3F3E3E3E3E3E3E0000000000000000F3
:103CA000000000000000000007F80F7C1E3E3E3EB2
:103CB0003C1FF80FF007E007E003E003F007F80F00
:103CC0007C0F7C1E3E3C1F780F780FF00000000038
:103CD00000000000000000000000000007F8077866
:103CE0000F7C1E3C1E3E3C1F780FF80FF007E003D0
:103CF000E003E003E003E003E003E003E003E003AC
:103D000000000000000000000000000000000000B3
:103D1000FF7FFF7F0F001F003E007C00F800F000D7
:103D2000E001E003C007800F000F001E003E007C92
:103D3000FF7FFF7F00000000000000000000FF0781
:103D4000800780078007800780078007800780073B
:103D5000800780078007800780078007800780072B
:103D6000800780078007800780078007FF07FF071D
:103D7000000000780078003C003C001E001E000F90
:103D8000000F80078007C003C003E001E001F000DE
:103D9000F000780078003C003C001E001E000F0080
:103DA0000F0007000000F07FF000F000F000F000CE
:103DB000F000F000F000F000F000F000F000F00083
:103DC000F000F000F000F000F000F000F000F00073
:103DD000F000F000F07FF07F0000C000C001C001E3
:103DE000E003E003F007F0077807780F380F3C1E78
:103DF0003C1E1E3C1E3C0F380F7807780000000068
:103E000000000000000000000000000000000000B2
:103E100000000000000000000000000000000000A2
:103E20000000000000000000000000000000000092
:103E30000000000000000000FFFFFFFF0000000086
:103E40000000F00000000000000000000000000082
:103E50000000000000000000000000000000000062
:103E60000000000000000000000000000000000052
:103E70000000000000000000000000000000000042
:103E80000000F80FFC3F7C3C3E003E003E00FE0779
:103E9000FE1F3E3E3E7C3E783E7C7E7CFF3FCF1F39
:103EA00000000000000000000000003C003C003C5E
:103EB000003C003C003CF83DFE3F3E3F1F3E0F3CB7
:103EC0000F3C0F3C0F3C0F3C0F3C1F3C1E3C3E3F49
:103ED000FC3FF03B0000000000000000000000007C
:103EE00000000000000000000000FE03FF0F871F1D
:103EF000003E003E003C007C007C007C003C003E1C
:103F0000003E871FFF0FFE030000000000000000BE
:103F100000001F001F001F001F001F001F00FF07E1
:103F2000FF1F3F3E1F3C1F7C1F7C1F7C1F781F789C
:103F30001F7C1F7C3F3C7F3EFF1FDF0F0000000007
:103F40000000000000000000000000000000000071
:103F50000000F803FC0F3E1F1E3E1F3C1F7CFF7F2E
:103F6000FF7F007C007C003C003E071FFF0FFE032C
:103F700000000000000000000000FF01E103C0039A
:103F8000C007C007C007FF7FFF7FC007C007C0078B
:103F9000C007C007C007C007C007C007C007C007E9
:103FA000C007C00700000000000000000000000083
:103FB00000000000000000000000EF07FF1F7F3E30
:103FC0001F3C1F7C1F7C1F781F781F781F7C1F7C65
:103FD0003F3C7F3EFF1FDF0F1E001E001E007C388F
:103FE000F83F003C003C003C003C003C003CFC3DF9
:103FF000FE3F9E3F1F3F1F3E1F3C1F3C1F3C1F3C80
:104000001F3C1F3C1F3C1F3C1F3C1F3C000000008E
:10401000000000000000F001F001000000000000BE
:104020000000E07FE07FE001E001E001E001E0016D
:10403000E001E001E001E001E001E001E001E00178
:1040400000000000000000000000F800F800000080
:10405000000000000000F83FF83FF800F800F8000A
:10406000F800F800F800F800F800F800F800F80090
:10407000F800F800F800F800F000F071E07F003C74
:10408000003C003C003C003C003C1F3C3E3C7C3C77
:10409000F83CF03DE03DC03FC03FE03FF03DF83C24
:1040A0007C3C3E3C1F3C1F3C000000000000000028
:1040B0000000F07FF001F001F001F001F001F001EB
:1040C000F001F001F001F001F001F001F001F00168
:1040D000F001F001F001F001F001F001000000003A
:1040E00000000000000000000000000000000000D0
:1040F00000009EF7FFFFFFFFFFFFE7FBE7F9C7F1B7
:10410000C7F1C7F1C7F1C7F1C7F1C7F1C7F1C7F1EF
:10411000000000000000000000000000000000009F
:10412000000000000000FC3DFE3F9E3F1F3F1F3E81
:104130001F3C1F3C1F3C1F3C1F3C1F3C1F3C1F3CA7
:104140001F3C1F3C000000000000000000000000B9
:1041500000000000000000000000F007FC1F3E3ED1
:104160001F3C1F7C0F780F780F780F780F781F7C1B
:104170001F3C3E3EFC1FF007000000000000000056
:104180000000000000000000000000000000F83DFA
:10419000FE3F3E3F1F3E0F3C0F3C0F3C0F3C0F3C91
:1041A0000F3C1F3C1E3E3E3FFC3FF83F003C003CA6
:1041B000003C003C003C000000000000000000004B
:1041C0000000EE07FE1F7E3E1E3C1E7C1E781E7801
:1041D0001E781E781E781E7C3E7C7E3EFE1FDE0F03
:1041E0001E001E001E001E001E0000000000000039
:1041F0000000000000007F1FFF1FE71FC71F871F71
:10420000001F001F001F001F001F001F001F001FB6
:10421000001F001F00000000000000000000000060
:1042200000000000000000000000FC07FE1F0E1E42
:10423000003E003E003FE01FFC07FE003E001E0067
:104240001E003E3CFC3FF01F00000000000000008C
:104250000000000000000000800780078007FF7F4B
:10426000FF7F80078007800780078007800780071F
:10427000800780078007C007FF03FF0100000000E0
:10428000000000000000000000000000000000002E
:1042900000001E3C1E3C1E3C1E3C1E3C1E3C1E3CA8
:1042A0001E3C1E3C1E3C3E3C7E3CFE3EFE1FDE0F86
:1042B00000000000000000000000000000000000FE
:1042C00000000000000007F00F780F781E3C1E3C35
:1042D0001E3E3C1E3C1E780F780FF00FF007F007D3
:1042E000E003E00300000000000000000000000008
:1042F0000000000000000000000003F0E3F1E3F321
:10430000E7F3F7F3F7F3F77F777F7F7F7F7F7F7F99
:104310003E3E3E3E3E3E3E3E0000000000000000AD
:1043200000000000000000000000000000000F7C02
:104330001E3E3C3E3C1FF80FF007F007E003F0077D
:10434000F807F80F7C1E3E3E1F3C1F78000000005F
:10435000000000000000000000000000000000005D
:10436000000007F80F780F7C1E3C1E3C3C1E3C1ED4
:104370003C1F780FF80FF007F007E003E003C003DD
:10438000C003C0038007800F007F00000000000012
:10439000000000000000FF3FFF3F1F003E007C00C8
:1043A000F800F001E003C007800F001F001E003C72
:1043B000FF7FFF7F00000000000000000000FE0102
:1043C000E003C003C003C003C003E001E001E0015B
:1043D000C001C003803F803FC003C001E001E00195
:1043E000E001C003C003C003C003E003FE017E0080
:1043F0000000C001C001C001C001C001C001C00176
:10440000C001C001C001C001C001C001C001C001A4
:10441000C001C001C001C001C001C001C001C00194
:10442000C001C0010000C03FE003E001E001E00185
:10443000E001C001C003C003C001E001FE00FE00B6
:10444000E001C001C003C003C001E001E001E001E0
:10445000E001E003C03F003F00000000000000005A
:10446000000000000000000000000000000000004C
:10447000073FC77FE773FFF17EF0000000000000F8
:10448000000000000000000000000000000000002C
:10449000B044000800000020E4000000E80100082B
:1044A00094450008E4000020B4060000040200085F
:1044B0000095BA0A00000000000000000102030499
:1044C00006070809000000000102030401020304BA
:1044D00006070809000000000000000000000000BE
:1044E000070A00007A1C00080B120000E6230008EF
:1044F000101A000042310008000000000000000017
:1045000000000000000000065864024000000006A1
:1045100040640240000000000000000000000000B5
:10452000706002400000000058600240000000007F
:104530000000000000000000886002400000000051
:1045400010600240000000000000000000000008B1
:1045500028640240000000081064024000000000CF
:10456000000000000000000EA06402400000000EE9
:10457000886402400000000000000000000000020B
:104580008864024000000002A064024000000000B5
:044590000000000027
:04000005080001AD41
:00000001FF
